{
  "_format": "hh-sol-artifact-1",
  "contractName": "CertificateValidator",
  "sourceName": "contracts/CertificateValidator.sol",
  "abi": [
    {
      "inputs": [],
      "stateMutability": "nonpayable",
      "type": "constructor"
    },
    {
      "inputs": [],
      "name": "AccessControlBadConfirmation",
      "type": "error"
    },
    {
      "inputs": [
        {
          "internalType": "address",
          "name": "account",
          "type": "address"
        },
        {
          "internalType": "bytes32",
          "name": "neededRole",
          "type": "bytes32"
        }
      ],
      "name": "AccessControlUnauthorizedAccount",
      "type": "error"
    },
    {
      "anonymous": false,
      "inputs": [
        {
          "indexed": false,
          "internalType": "bytes32",
          "name": "hash",
          "type": "bytes32"
        }
      ],
      "name": "HashRevoked",
      "type": "event"
    },
    {
      "anonymous": false,
      "inputs": [
        {
          "indexed": false,
          "internalType": "bytes32",
          "name": "hash",
          "type": "bytes32"
        }
      ],
      "name": "HashStored",
      "type": "event"
    },
    {
      "anonymous": false,
      "inputs": [
        {
          "indexed": true,
          "internalType": "bytes32",
          "name": "role",
          "type": "bytes32"
        },
        {
          "indexed": true,
          "internalType": "bytes32",
          "name": "previousAdminRole",
          "type": "bytes32"
        },
        {
          "indexed": true,
          "internalType": "bytes32",
          "name": "newAdminRole",
          "type": "bytes32"
        }
      ],
      "name": "RoleAdminChanged",
      "type": "event"
    },
    {
      "anonymous": false,
      "inputs": [
        {
          "indexed": true,
          "internalType": "bytes32",
          "name": "role",
          "type": "bytes32"
        },
        {
          "indexed": true,
          "internalType": "address",
          "name": "account",
          "type": "address"
        },
        {
          "indexed": true,
          "internalType": "address",
          "name": "sender",
          "type": "address"
        }
      ],
      "name": "RoleGranted",
      "type": "event"
    },
    {
      "anonymous": false,
      "inputs": [
        {
          "indexed": true,
          "internalType": "bytes32",
          "name": "role",
          "type": "bytes32"
        },
        {
          "indexed": true,
          "internalType": "address",
          "name": "account",
          "type": "address"
        },
        {
          "indexed": true,
          "internalType": "address",
          "name": "sender",
          "type": "address"
        }
      ],
      "name": "RoleRevoked",
      "type": "event"
    },
    {
      "inputs": [],
      "name": "DEFAULT_ADMIN_ROLE",
      "outputs": [
        {
          "internalType": "bytes32",
          "name": "",
          "type": "bytes32"
        }
      ],
      "stateMutability": "view",
      "type": "function"
    },
    {
      "inputs": [],
      "name": "HASH_MANAGER_ROLE",
      "outputs": [
        {
          "internalType": "bytes32",
          "name": "",
          "type": "bytes32"
        }
      ],
      "stateMutability": "view",
      "type": "function"
    },
    {
      "inputs": [
        {
          "internalType": "bytes32",
          "name": "role",
          "type": "bytes32"
        }
      ],
      "name": "getRoleAdmin",
      "outputs": [
        {
          "internalType": "bytes32",
          "name": "",
          "type": "bytes32"
        }
      ],
      "stateMutability": "view",
      "type": "function"
    },
    {
      "inputs": [
        {
          "internalType": "address",
          "name": "account",
          "type": "address"
        }
      ],
      "name": "grantHashManagerRole",
      "outputs": [],
      "stateMutability": "nonpayable",
      "type": "function"
    },
    {
      "inputs": [
        {
          "internalType": "bytes32",
          "name": "role",
          "type": "bytes32"
        },
        {
          "internalType": "address",
          "name": "account",
          "type": "address"
        }
      ],
      "name": "grantRole",
      "outputs": [],
      "stateMutability": "nonpayable",
      "type": "function"
    },
    {
      "inputs": [
        {
          "internalType": "bytes32",
          "name": "role",
          "type": "bytes32"
        },
        {
          "internalType": "address",
          "name": "account",
          "type": "address"
        }
      ],
      "name": "hasRole",
      "outputs": [
        {
          "internalType": "bool",
          "name": "",
          "type": "bool"
        }
      ],
      "stateMutability": "view",
      "type": "function"
    },
    {
      "inputs": [
        {
          "internalType": "bytes32",
          "name": "",
          "type": "bytes32"
        }
      ],
      "name": "hashes",
      "outputs": [
        {
          "internalType": "bool",
          "name": "",
          "type": "bool"
        }
      ],
      "stateMutability": "view",
      "type": "function"
    },
    {
      "inputs": [
        {
          "internalType": "bytes32",
          "name": "role",
          "type": "bytes32"
        },
        {
          "internalType": "address",
          "name": "callerConfirmation",
          "type": "address"
        }
      ],
      "name": "renounceRole",
      "outputs": [],
      "stateMutability": "nonpayable",
      "type": "function"
    },
    {
      "inputs": [
        {
          "internalType": "bytes32",
          "name": "hash",
          "type": "bytes32"
        }
      ],
      "name": "revokeHash",
      "outputs": [
        {
          "internalType": "bool",
          "name": "",
          "type": "bool"
        }
      ],
      "stateMutability": "nonpayable",
      "type": "function"
    },
    {
      "inputs": [
        {
          "internalType": "bytes32",
          "name": "role",
          "type": "bytes32"
        },
        {
          "internalType": "address",
          "name": "account",
          "type": "address"
        }
      ],
      "name": "revokeRole",
      "outputs": [],
      "stateMutability": "nonpayable",
      "type": "function"
    },
    {
      "inputs": [
        {
          "internalType": "bytes32",
          "name": "hash",
          "type": "bytes32"
        }
      ],
      "name": "storeHash",
      "outputs": [
        {
          "internalType": "bool",
          "name": "",
          "type": "bool"
        }
      ],
      "stateMutability": "nonpayable",
      "type": "function"
    },
    {
      "inputs": [
        {
          "internalType": "bytes4",
          "name": "interfaceId",
          "type": "bytes4"
        }
      ],
      "name": "supportsInterface",
      "outputs": [
        {
          "internalType": "bool",
          "name": "",
          "type": "bool"
        }
      ],
      "stateMutability": "view",
      "type": "function"
    },
    {
      "inputs": [
        {
          "internalType": "bytes32",
          "name": "hash",
          "type": "bytes32"
        }
      ],
      "name": "verifyHash",
      "outputs": [
        {
          "internalType": "bool",
          "name": "",
          "type": "bool"
        }
      ],
      "stateMutability": "view",
      "type": "function"
    }
  ],
  "bytecode": "0x608060405234801561001057600080fd5b506100246000801b3361005b60201b60201c565b506100557f150afc50b895426f0716d3e08d473148fa98f856855088cd8b129869b935b4363361005b60201b60201c565b506101ca565b600061006d838361015860201b60201c565b61014d57600160008085815260200190815260200160002060000160008473ffffffffffffffffffffffffffffffffffffffff1673ffffffffffffffffffffffffffffffffffffffff16815260200190815260200160002060006101000a81548160ff0219169083151502179055506100ea6101c260201b60201c565b73ffffffffffffffffffffffffffffffffffffffff168273ffffffffffffffffffffffffffffffffffffffff16847f2f8788117e7eff1d82e926ec794901d17c78024a50270940304540a733656f0d60405160405180910390a460019050610152565b600090505b92915050565b600080600084815260200190815260200160002060000160008373ffffffffffffffffffffffffffffffffffffffff1673ffffffffffffffffffffffffffffffffffffffff16815260200190815260200160002060009054906101000a900460ff16905092915050565b600033905090565b610bb3806101d96000396000f3fe608060405234801561001057600080fd5b50600436106100cf5760003560e01c806370de43f11161008c578063a217fddf11610066578063a217fddf14610236578063d547741f14610254578063d658d2e914610270578063ef020f4a146102a0576100cf565b806370de43f1146101a65780637fe88885146101d657806391d1485414610206576100cf565b806301ffc9a7146100d4578063248a9ca3146101045780632f2ff15d1461013457806336568abe14610150578063536cde5d1461016c5780636cc965f214610188575b600080fd5b6100ee60048036038101906100e9919061098a565b6102d0565b6040516100fb91906109d2565b60405180910390f35b61011e60048036038101906101199190610a23565b61034a565b60405161012b9190610a5f565b60405180910390f35b61014e60048036038101906101499190610ad8565b610369565b005b61016a60048036038101906101659190610ad8565b61038b565b005b61018660048036038101906101819190610b18565b610406565b005b610190610441565b60405161019d9190610a5f565b60405180910390f35b6101c060048036038101906101bb9190610a23565b610465565b6040516101cd91906109d2565b60405180910390f35b6101f060048036038101906101eb9190610a23565b6104fe565b6040516101fd91906109d2565b60405180910390f35b610220600480360381019061021b9190610ad8565b610596565b60405161022d91906109d2565b60405180910390f35b61023e610600565b60405161024b9190610a5f565b60405180910390f35b61026e60048036038101906102699190610ad8565b610607565b005b61028a60048036038101906102859190610a23565b610629565b60405161029791906109d2565b60405180910390f35b6102ba60048036038101906102b59190610a23565b610649565b6040516102c791906109d2565b60405180910390f35b60007f7965db0b000000000000000000000000000000000000000000000000000000007bffffffffffffffffffffffffffffffffffffffffffffffffffffffff1916827bffffffffffffffffffffffffffffffffffffffffffffffffffffffff19161480610343575061034282610673565b5b9050919050565b6000806000838152602001908152602001600020600101549050919050565b6103728261034a565b61037b816106dd565b61038583836106f1565b50505050565b6103936107e2565b73ffffffffffffffffffffffffffffffffffffffff168173ffffffffffffffffffffffffffffffffffffffff16146103f7576040517f6697b23200000000000000000000000000000000000000000000000000000000815260040160405180910390fd5b61040182826107ea565b505050565b6000801b610413816106dd565b61043d7f150afc50b895426f0716d3e08d473148fa98f856855088cd8b129869b935b43683610369565b5050565b7f150afc50b895426f0716d3e08d473148fa98f856855088cd8b129869b935b43681565b60007f150afc50b895426f0716d3e08d473148fa98f856855088cd8b129869b935b436610491816106dd565b60006001600085815260200190815260200160002060006101000a81548160ff0219169083151502179055507fd31dcfefca5ecf17488167b39d46be9b5077833075df0d2f9550881afa930f33836040516104ec9190610a5f565b60405180910390a16001915050919050565b60007f150afc50b895426f0716d3e08d473148fa98f856855088cd8b129869b935b43661052a816106dd565b600180600085815260200190815260200160002060006101000a81548160ff0219169083151502179055507f94064d925a8b107bd49bcd440ea5da85b1ce987eef138b159ece3ba15735a42f836040516105849190610a5f565b60405180910390a16001915050919050565b600080600084815260200190815260200160002060000160008373ffffffffffffffffffffffffffffffffffffffff1673ffffffffffffffffffffffffffffffffffffffff16815260200190815260200160002060009054906101000a900460ff16905092915050565b6000801b81565b6106108261034a565b610619816106dd565b61062383836107ea565b50505050565b60016020528060005260406000206000915054906101000a900460ff1681565b60006001600083815260200190815260200160002060009054906101000a900460ff169050919050565b60007f01ffc9a7000000000000000000000000000000000000000000000000000000007bffffffffffffffffffffffffffffffffffffffffffffffffffffffff1916827bffffffffffffffffffffffffffffffffffffffffffffffffffffffff1916149050919050565b6106ee816106e96107e2565b6108dc565b50565b60006106fd8383610596565b6107d757600160008085815260200190815260200160002060000160008473ffffffffffffffffffffffffffffffffffffffff1673ffffffffffffffffffffffffffffffffffffffff16815260200190815260200160002060006101000a81548160ff0219169083151502179055506107746107e2565b73ffffffffffffffffffffffffffffffffffffffff168273ffffffffffffffffffffffffffffffffffffffff16847f2f8788117e7eff1d82e926ec794901d17c78024a50270940304540a733656f0d60405160405180910390a4600190506107dc565b600090505b92915050565b600033905090565b60006107f68383610596565b156108d157600080600085815260200190815260200160002060000160008473ffffffffffffffffffffffffffffffffffffffff1673ffffffffffffffffffffffffffffffffffffffff16815260200190815260200160002060006101000a81548160ff02191690831515021790555061086e6107e2565b73ffffffffffffffffffffffffffffffffffffffff168273ffffffffffffffffffffffffffffffffffffffff16847ff6391f5c32d9c69d2a47ea670b442974b53935d1edc7fd64eb21e047a839171b60405160405180910390a4600190506108d6565b600090505b92915050565b6108e68282610596565b6109295780826040517fe2517d3f000000000000000000000000000000000000000000000000000000008152600401610920929190610b54565b60405180910390fd5b5050565b600080fd5b60007fffffffff0000000000000000000000000000000000000000000000000000000082169050919050565b61096781610932565b811461097257600080fd5b50565b6000813590506109848161095e565b92915050565b6000602082840312156109a05761099f61092d565b5b60006109ae84828501610975565b91505092915050565b60008115159050919050565b6109cc816109b7565b82525050565b60006020820190506109e760008301846109c3565b92915050565b6000819050919050565b610a00816109ed565b8114610a0b57600080fd5b50565b600081359050610a1d816109f7565b92915050565b600060208284031215610a3957610a3861092d565b5b6000610a4784828501610a0e565b91505092915050565b610a59816109ed565b82525050565b6000602082019050610a746000830184610a50565b92915050565b600073ffffffffffffffffffffffffffffffffffffffff82169050919050565b6000610aa582610a7a565b9050919050565b610ab581610a9a565b8114610ac057600080fd5b50565b600081359050610ad281610aac565b92915050565b60008060408385031215610aef57610aee61092d565b5b6000610afd85828601610a0e565b9250506020610b0e85828601610ac3565b9150509250929050565b600060208284031215610b2e57610b2d61092d565b5b6000610b3c84828501610ac3565b91505092915050565b610b4e81610a9a565b82525050565b6000604082019050610b696000830185610b45565b610b766020830184610a50565b939250505056fea2646970667358221220e4177cd92d6c0da1518e4eb64ca0765458914258948bd24d12cb946432eb9e1364736f6c63430008140033",
  "linkReferences": {},
  "deployedLinkReferences": {}
}